{
  "_format": "hh-sol-artifact-1",
  "contractName": "MatDAO_Escrow",
  "sourceName": "contracts/MatDAO_Escrow.sol",
  "abi": [
    {
      "inputs": [
        {
          "internalType": "address",
          "name": "_fundingToken",
          "type": "address"
        },
        {
          "internalType": "address",
          "name": "_iptToken",
          "type": "address"
        },
        {
          "internalType": "address",
          "name": "_researcher",
          "type": "address"
        },
        {
          "internalType": "address",
          "name": "_matdaoTreasury",
          "type": "address"
        },
        {
          "internalType": "string[]",
          "name": "_milestoneDescriptions",
          "type": "string[]"
        },
        {
          "internalType": "uint256[]",
          "name": "_milestoneAmounts",
          "type": "uint256[]"
        }
      ],
      "stateMutability": "nonpayable",
      "type": "constructor"
    },
    {
      "anonymous": false,
      "inputs": [
        {
          "indexed": true,
          "internalType": "address",
          "name": "investor",
          "type": "address"
        },
        {
          "indexed": false,
          "internalType": "uint256",
          "name": "amount",
          "type": "uint256"
        }
      ],
      "name": "DividendClaimed",
      "type": "event"
    },
    {
      "anonymous": false,
      "inputs": [
        {
          "indexed": true,
          "internalType": "address",
          "name": "investor",
          "type": "address"
        },
        {
          "indexed": false,
          "internalType": "uint256",
          "name": "refundAmount",
          "type": "uint256"
        }
      ],
      "name": "EmergencyRefundClaimed",
      "type": "event"
    },
    {
      "anonymous": false,
      "inputs": [
        {
          "indexed": false,
          "internalType": "uint256",
          "name": "totalAmount",
          "type": "uint256"
        }
      ],
      "name": "FundingGoalReached",
      "type": "event"
    },
    {
      "anonymous": false,
      "inputs": [
        {
          "indexed": true,
          "internalType": "uint256",
          "name": "milestoneId",
          "type": "uint256"
        }
      ],
      "name": "MilestoneApproved",
      "type": "event"
    },
    {
      "anonymous": false,
      "inputs": [
        {
          "indexed": true,
          "internalType": "uint256",
          "name": "milestoneId",
          "type": "uint256"
        },
        {
          "indexed": false,
          "internalType": "uint256",
          "name": "amount",
          "type": "uint256"
        }
      ],
      "name": "MilestoneClaimed",
      "type": "event"
    },
    {
      "anonymous": false,
      "inputs": [
        {
          "indexed": true,
          "internalType": "address",
          "name": "previousOwner",
          "type": "address"
        },
        {
          "indexed": true,
          "internalType": "address",
          "name": "newOwner",
          "type": "address"
        }
      ],
      "name": "OwnershipTransferred",
      "type": "event"
    },
    {
      "anonymous": false,
      "inputs": [
        {
          "indexed": false,
          "internalType": "uint256",
          "name": "amount",
          "type": "uint256"
        }
      ],
      "name": "PlatformFeeCollected",
      "type": "event"
    },
    {
      "anonymous": false,
      "inputs": [],
      "name": "ProjectFailed",
      "type": "event"
    },
    {
      "anonymous": false,
      "inputs": [
        {
          "indexed": true,
          "internalType": "address",
          "name": "investor",
          "type": "address"
        },
        {
          "indexed": false,
          "internalType": "uint256",
          "name": "amount",
          "type": "uint256"
        }
      ],
      "name": "ProjectFunded",
      "type": "event"
    },
    {
      "anonymous": false,
      "inputs": [
        {
          "indexed": false,
          "internalType": "uint256",
          "name": "amount",
          "type": "uint256"
        },
        {
          "indexed": false,
          "internalType": "uint256",
          "name": "daoFee",
          "type": "uint256"
        },
        {
          "indexed": false,
          "internalType": "uint256",
          "name": "researcherFee",
          "type": "uint256"
        },
        {
          "indexed": false,
          "internalType": "uint256",
          "name": "investorPool",
          "type": "uint256"
        }
      ],
      "name": "RoyaltiesDeposited",
      "type": "event"
    },
    {
      "inputs": [],
      "name": "PLATFORM_FEE_BPS",
      "outputs": [
        {
          "internalType": "uint256",
          "name": "",
          "type": "uint256"
        }
      ],
      "stateMutability": "view",
      "type": "function"
    },
    {
      "inputs": [
        {
          "internalType": "uint256",
          "name": "milestoneId",
          "type": "uint256"
        }
      ],
      "name": "approveMilestone",
      "outputs": [],
      "stateMutability": "nonpayable",
      "type": "function"
    },
    {
      "inputs": [],
      "name": "claimDividends",
      "outputs": [],
      "stateMutability": "nonpayable",
      "type": "function"
    },
    {
      "inputs": [],
      "name": "claimEmergencyRefund",
      "outputs": [],
      "stateMutability": "nonpayable",
      "type": "function"
    },
    {
      "inputs": [
        {
          "internalType": "uint256",
          "name": "milestoneId",
          "type": "uint256"
        }
      ],
      "name": "claimMilestone",
      "outputs": [],
      "stateMutability": "nonpayable",
      "type": "function"
    },
    {
      "inputs": [
        {
          "internalType": "address",
          "name": "",
          "type": "address"
        }
      ],
      "name": "claimedDividends",
      "outputs": [
        {
          "internalType": "uint256",
          "name": "",
          "type": "uint256"
        }
      ],
      "stateMutability": "view",
      "type": "function"
    },
    {
      "inputs": [],
      "name": "currentFunding",
      "outputs": [
        {
          "internalType": "uint256",
          "name": "",
          "type": "uint256"
        }
      ],
      "stateMutability": "view",
      "type": "function"
    },
    {
      "inputs": [
        {
          "internalType": "uint256",
          "name": "amount",
          "type": "uint256"
        }
      ],
      "name": "depositRoyalties",
      "outputs": [],
      "stateMutability": "nonpayable",
      "type": "function"
    },
    {
      "inputs": [
        {
          "internalType": "uint256",
          "name": "amount",
          "type": "uint256"
        }
      ],
      "name": "fundProject",
      "outputs": [],
      "stateMutability": "nonpayable",
      "type": "function"
    },
    {
      "inputs": [],
      "name": "fundingToken",
      "outputs": [
        {
          "internalType": "contract IERC20",
          "name": "",
          "type": "address"
        }
      ],
      "stateMutability": "view",
      "type": "function"
    },
    {
      "inputs": [],
      "name": "getAllMilestones",
      "outputs": [
        {
          "internalType": "string[]",
          "name": "descriptions",
          "type": "string[]"
        },
        {
          "internalType": "uint256[]",
          "name": "amounts",
          "type": "uint256[]"
        },
        {
          "internalType": "bool[]",
          "name": "approved",
          "type": "bool[]"
        },
        {
          "internalType": "bool[]",
          "name": "withdrawn",
          "type": "bool[]"
        }
      ],
      "stateMutability": "view",
      "type": "function"
    },
    {
      "inputs": [
        {
          "internalType": "address",
          "name": "user",
          "type": "address"
        }
      ],
      "name": "getClaimableDividends",
      "outputs": [
        {
          "internalType": "uint256",
          "name": "",
          "type": "uint256"
        }
      ],
      "stateMutability": "view",
      "type": "function"
    },
    {
      "inputs": [
        {
          "internalType": "address",
          "name": "user",
          "type": "address"
        }
      ],
      "name": "getEmergencyRefundEstimate",
      "outputs": [
        {
          "internalType": "uint256",
          "name": "",
          "type": "uint256"
        }
      ],
      "stateMutability": "view",
      "type": "function"
    },
    {
      "inputs": [],
      "name": "getFinancialBreakdown",
      "outputs": [
        {
          "internalType": "uint256",
          "name": "totalGoal",
          "type": "uint256"
        },
        {
          "internalType": "uint256",
          "name": "platformFee",
          "type": "uint256"
        },
        {
          "internalType": "uint256",
          "name": "netRunway",
          "type": "uint256"
        }
      ],
      "stateMutability": "view",
      "type": "function"
    },
    {
      "inputs": [],
      "name": "getFundingProgress",
      "outputs": [
        {
          "internalType": "uint256",
          "name": "current",
          "type": "uint256"
        },
        {
          "internalType": "uint256",
          "name": "goal",
          "type": "uint256"
        },
        {
          "internalType": "uint256",
          "name": "percentage",
          "type": "uint256"
        }
      ],
      "stateMutability": "view",
      "type": "function"
    },
    {
      "inputs": [
        {
          "internalType": "uint256",
          "name": "milestoneId",
          "type": "uint256"
        }
      ],
      "name": "getMilestone",
      "outputs": [
        {
          "internalType": "string",
          "name": "description",
          "type": "string"
        },
        {
          "internalType": "uint256",
          "name": "amount",
          "type": "uint256"
        },
        {
          "internalType": "bool",
          "name": "isApproved",
          "type": "bool"
        },
        {
          "internalType": "bool",
          "name": "isWithdrawn",
          "type": "bool"
        }
      ],
      "stateMutability": "view",
      "type": "function"
    },
    {
      "inputs": [],
      "name": "getMilestoneCount",
      "outputs": [
        {
          "internalType": "uint256",
          "name": "",
          "type": "uint256"
        }
      ],
      "stateMutability": "view",
      "type": "function"
    },
    {
      "inputs": [],
      "name": "iptToken",
      "outputs": [
        {
          "internalType": "contract IERC20",
          "name": "",
          "type": "address"
        }
      ],
      "stateMutability": "view",
      "type": "function"
    },
    {
      "inputs": [],
      "name": "isProjectFailed",
      "outputs": [
        {
          "internalType": "bool",
          "name": "",
          "type": "bool"
        }
      ],
      "stateMutability": "view",
      "type": "function"
    },
    {
      "inputs": [],
      "name": "matdaoTreasury",
      "outputs": [
        {
          "internalType": "address",
          "name": "",
          "type": "address"
        }
      ],
      "stateMutability": "view",
      "type": "function"
    },
    {
      "inputs": [
        {
          "internalType": "uint256",
          "name": "",
          "type": "uint256"
        }
      ],
      "name": "milestones",
      "outputs": [
        {
          "internalType": "string",
          "name": "description",
          "type": "string"
        },
        {
          "internalType": "uint256",
          "name": "amount",
          "type": "uint256"
        },
        {
          "internalType": "bool",
          "name": "isApproved",
          "type": "bool"
        },
        {
          "internalType": "bool",
          "name": "isWithdrawn",
          "type": "bool"
        }
      ],
      "stateMutability": "view",
      "type": "function"
    },
    {
      "inputs": [],
      "name": "owner",
      "outputs": [
        {
          "internalType": "address",
          "name": "",
          "type": "address"
        }
      ],
      "stateMutability": "view",
      "type": "function"
    },
    {
      "inputs": [],
      "name": "projectFunded",
      "outputs": [
        {
          "internalType": "bool",
          "name": "",
          "type": "bool"
        }
      ],
      "stateMutability": "view",
      "type": "function"
    },
    {
      "inputs": [],
      "name": "renounceOwnership",
      "outputs": [],
      "stateMutability": "nonpayable",
      "type": "function"
    },
    {
      "inputs": [],
      "name": "researcher",
      "outputs": [
        {
          "internalType": "address",
          "name": "",
          "type": "address"
        }
      ],
      "stateMutability": "view",
      "type": "function"
    },
    {
      "inputs": [],
      "name": "toggleProjectFailure",
      "outputs": [],
      "stateMutability": "nonpayable",
      "type": "function"
    },
    {
      "inputs": [],
      "name": "totalDividendPool",
      "outputs": [
        {
          "internalType": "uint256",
          "name": "",
          "type": "uint256"
        }
      ],
      "stateMutability": "view",
      "type": "function"
    },
    {
      "inputs": [],
      "name": "totalFundingGoal",
      "outputs": [
        {
          "internalType": "uint256",
          "name": "",
          "type": "uint256"
        }
      ],
      "stateMutability": "view",
      "type": "function"
    },
    {
      "inputs": [
        {
          "internalType": "address",
          "name": "newOwner",
          "type": "address"
        }
      ],
      "name": "transferOwnership",
      "outputs": [],
      "stateMutability": "nonpayable",
      "type": "function"
    }
  ],
  "bytecode": "0x60806040523480156200001157600080fd5b5060405162002b7338038062002b73833981016040819052620000349162000571565b6200003f3362000422565b600180556001600160a01b0386166200009f5760405162461bcd60e51b815260206004820152601560248201527f496e76616c69642066756e64696e6720746f6b656e000000000000000000000060448201526064015b60405180910390fd5b6001600160a01b038516620000eb5760405162461bcd60e51b815260206004820152601160248201527024b73b30b634b21024a82a103a37b5b2b760791b604482015260640162000096565b6001600160a01b038416620001435760405162461bcd60e51b815260206004820152601a60248201527f496e76616c696420726573656172636865722061646472657373000000000000604482015260640162000096565b6001600160a01b0383166200019b5760405162461bcd60e51b815260206004820152601860248201527f496e76616c696420747265617375727920616464726573730000000000000000604482015260640162000096565b8051825114620001ee5760405162461bcd60e51b815260206004820181905260248201527f4d696c6573746f6e6520617272617973206c656e677468206d69736d61746368604482015260640162000096565b6000825111620002415760405162461bcd60e51b815260206004820152601f60248201527f4174206c65617374206f6e65206d696c6573746f6e6520726571756972656400604482015260640162000096565b600280546001600160a01b038089166001600160a01b0319928316179092556003805488841690831617905560048054878416908316179055600580549286169290911691909117905560005b825181101562000415576000828281518110620002af57620002af6200073a565b602002602001015111620003065760405162461bcd60e51b815260206004820152601c60248201527f4d696c6573746f6e6520616d6f756e74206d757374206265203e203000000000604482015260640162000096565b600860405180608001604052808584815181106200032857620003286200073a565b602002602001015181526020018484815181106200034a576200034a6200073a565b6020908102919091018101518252600082820181905260409092018290528354600181018555938252902081519192600302019081906200038c9082620007df565b506020820151600182015560408201516002909101805460609093015115156101000261ff00199215159290921661ffff19909316929092171790558151829082908110620003df57620003df6200073a565b602002602001015160066000828254620003fa9190620008c1565b909155508190506200040c81620008dd565b9150506200028e565b50505050505050620008f9565b600080546001600160a01b038381166001600160a01b0319831681178455604051919092169283917f8be0079c531659141344cd1fd0a4f28419497f9722a3daafe3b4186f6b6457e09190a35050565b80516001600160a01b03811681146200048a57600080fd5b919050565b634e487b7160e01b600052604160045260246000fd5b604051601f8201601f191681016001600160401b0381118282101715620004d057620004d06200048f565b604052919050565b60006001600160401b03821115620004f457620004f46200048f565b5060051b60200190565b600082601f8301126200051057600080fd5b81516020620005296200052383620004d8565b620004a5565b82815260059290921b840181019181810190868411156200054957600080fd5b8286015b848110156200056657805183529183019183016200054d565b509695505050505050565b60008060008060008060c087890312156200058b57600080fd5b620005968762000472565b9550620005a66020880162000472565b9450620005b66040880162000472565b9350620005c66060880162000472565b60808801519093506001600160401b03811115620005e357600080fd5b8701601f81018913620005f557600080fd5b8051620006066200052382620004d8565b808282526020820191508b60208460051b86010111156200062657600080fd5b602084015b60208460051b860101811015620006fd5780516001600160401b038111156200065357600080fd5b8d603f82880101126200066557600080fd5b858101602001516001600160401b038111156200068657620006866200048f565b6200069b601f8201601f1916602001620004a5565b8181528f604083858b0101011115620006b357600080fd5b60005b82811015620006db57604081858b0101015160208284010152602081019050620006b6565b506000602083830101528086525050506020830192506020810190506200062b565b5060a08b0151909550925050506001600160401b038111156200071f57600080fd5b6200072d89828a01620004fe565b9150509295509295509295565b634e487b7160e01b600052603260045260246000fd5b600181811c908216806200076557607f821691505b6020821081036200078657634e487b7160e01b600052602260045260246000fd5b50919050565b601f821115620007da57600081815260208120601f850160051c81016020861015620007b55750805b601f850160051c820191505b81811015620007d657828155600101620007c1565b5050505b505050565b81516001600160401b03811115620007fb57620007fb6200048f565b62000813816200080c845462000750565b846200078c565b602080601f8311600181146200084b5760008415620008325750858301515b600019600386901b1c1916600185901b178555620007d6565b600085815260208120601f198616915b828110156200087c578886015182559484019460019091019084016200085b565b50858210156200089b5787850151600019600388901b60f8161c191681555b5050505050600190811b01905550565b634e487b7160e01b600052601160045260246000fd5b80820180821115620008d757620008d7620008ab565b92915050565b600060018201620008f257620008f2620008ab565b5060010190565b61226a80620009096000396000f3fe608060405234801561001057600080fd5b50600436106101cf5760003560e01c806378065f2711610104578063bb379970116100a2578063e89e4ed611610071578063e89e4ed6146103b0578063e98670b0146103c3578063f2fde38b146103d6578063fcf11e75146103e957600080fd5b8063bb3799701461036a578063c438b40f1461038d578063ce98bdf8146103a0578063cf1d224b146103a857600080fd5b80638284ce3e116100de5780638284ce3e146103355780638da5cb5b146103485780638f4cf24714610359578063b54ec8e61461036157600080fd5b806378065f27146102ef5780637dfb3383146103025780637e5ce8021461032257600080fd5b8063539aa77f11610171578063644c92a41161014b578063644c92a4146102b9578063668038e0146102cc5780636c563abe146102d4578063715018a6146102e757600080fd5b8063539aa77f146102905780635c43dd991461029857806361da77c5146102b057600080fd5b8063105fd61f116101ad578063105fd61f1461022e5780631dc0a6a5146102385780632442e1cb1461024b5780634f195b761461026e57600080fd5b806301ddaaa8146101d45780630857ddd2146102045780630888b70d14610225575b600080fd5b6005546101e7906001600160a01b031681565b6040516001600160a01b0390911681526020015b60405180910390f35b610217610212366004611eaa565b6103f6565b6040519081526020016101fb565b61021760075481565b61023661059f565b005b6004546101e7906001600160a01b031681565b61025e610259366004611eda565b6108d8565b6040516101fb9493929190611f43565b60095461028090610100900460ff1681565b60405190151581526020016101fb565b61021760fa81565b6102a0610a14565b6040516101fb9493929190611fe1565b61021760065481565b6102366102c7366004611eda565b610ce6565b610236610f89565b6102366102e2366004611eda565b6111e6565b6102366113e9565b6002546101e7906001600160a01b031681565b610217610310366004611eaa565b600b6020526000908152604090205481565b6003546101e7906001600160a01b031681565b610217610343366004611eaa565b6113fb565b6000546001600160a01b03166101e7565b600854610217565b610217600a5481565b61037261153d565b604080519384526020840192909252908201526060016101fb565b61023661039b366004611eda565b611572565b6102366116fa565b6103726117df565b61025e6103be366004611eda565b6117fd565b6102366103d1366004611eda565b6118cc565b6102366103e4366004611eaa565b611a26565b6009546102809060ff1681565b600954600090610100900460ff1661041057506000919050565b6003546040516370a0823160e01b81526001600160a01b03848116600483015260009216906370a0823190602401602060405180830381865afa15801561045b573d6000803e3d6000fd5b505050506040513d601f19601f8201168201806040525081019061047f9190612076565b6002546040516370a0823160e01b81523060048201529192506000916001600160a01b03909116906370a0823190602401602060405180830381865afa1580156104cd573d6000803e3d6000fd5b505050506040513d601f19601f820116820180604052508101906104f19190612076565b90506000600360009054906101000a90046001600160a01b03166001600160a01b03166318160ddd6040518163ffffffff1660e01b8152600401602060405180830381865afa158015610548573d6000803e3d6000fd5b505050506040513d601f19601f8201168201806040525081019061056c9190612076565b90508060000361058157506000949350505050565b8061058c83856120a5565b61059691906120c2565b95945050505050565b6105a7611a9c565b600954610100900460ff166106035760405162461bcd60e51b815260206004820152601c60248201527f50726f6a656374206d757374206265206661696c65642066697273740000000060448201526064015b60405180910390fd5b6003546040516370a0823160e01b81523360048201526000916001600160a01b0316906370a0823190602401602060405180830381865afa15801561064c573d6000803e3d6000fd5b505050506040513d601f19601f820116820180604052508101906106709190612076565b9050600081116106b75760405162461bcd60e51b8152602060048201526012602482015271139bc8125415081d1bdad95b9cc81a195b1960721b60448201526064016105fa565b6002546040516370a0823160e01b81523060048201526000916001600160a01b0316906370a0823190602401602060405180830381865afa158015610700573d6000803e3d6000fd5b505050506040513d601f19601f820116820180604052508101906107249190612076565b90506000600360009054906101000a90046001600160a01b03166001600160a01b03166318160ddd6040518163ffffffff1660e01b8152600401602060405180830381865afa15801561077b573d6000803e3d6000fd5b505050506040513d601f19601f8201168201806040525081019061079f9190612076565b90506000816107ae84866120a5565b6107b891906120c2565b9050600081116108005760405162461bcd60e51b81526020600482015260136024820152724e6f20726566756e6420617661696c61626c6560681b60448201526064016105fa565b6003546040516323b872dd60e01b8152336004820152306024820152604481018690526001600160a01b03909116906323b872dd906064016020604051808303816000875af1158015610857573d6000803e3d6000fd5b505050506040513d601f19601f8201168201806040525081019061087b91906120e4565b50600254610893906001600160a01b03163383611af5565b60405181815233907fa3a37f07e2373aa6bd8e8446f5b6beead6945d2a8a9d53ede77ba96f0ac2528e906020015b60405180910390a2505050506108d660018055565b565b6060600080600060088054905085106109035760405162461bcd60e51b81526004016105fa90612106565b60006008868154811061091857610918612134565b90600052602060002090600302016040518060800160405290816000820180546109419061214a565b80601f016020809104026020016040519081016040528092919081815260200182805461096d9061214a565b80156109ba5780601f1061098f576101008083540402835291602001916109ba565b820191906000526020600020905b81548152906001019060200180831161099d57829003601f168201915b5050509183525050600182015460208083019190915260029092015460ff80821615156040808501919091526101009092041615156060928301528351928401519084015193909101519199909850919650945092505050565b6008546060908190819081908067ffffffffffffffff811115610a3957610a39612184565b604051908082528060200260200182016040528015610a6c57816020015b6060815260200190600190039081610a575790505b5094508067ffffffffffffffff811115610a8857610a88612184565b604051908082528060200260200182016040528015610ab1578160200160208202803683370190505b5093508067ffffffffffffffff811115610acd57610acd612184565b604051908082528060200260200182016040528015610af6578160200160208202803683370190505b5092508067ffffffffffffffff811115610b1257610b12612184565b604051908082528060200260200182016040528015610b3b578160200160208202803683370190505b50915060005b81811015610cde57600060088281548110610b5e57610b5e612134565b9060005260206000209060030201604051806080016040529081600082018054610b879061214a565b80601f0160208091040260200160405190810160405280929190818152602001828054610bb39061214a565b8015610c005780601f10610bd557610100808354040283529160200191610c00565b820191906000526020600020905b815481529060010190602001808311610be357829003601f168201915b50505091835250506001820154602082015260029091015460ff808216151560408401526101009091041615156060909101528051885191925090889084908110610c4d57610c4d612134565b60200260200101819052508060200151868381518110610c6f57610c6f612134565b6020026020010181815250508060400151858381518110610c9257610c92612134565b6020026020010190151590811515815250508060600151848381518110610cbb57610cbb612134565b911515602092830291909101909101525080610cd68161219a565b915050610b41565b505090919293565b610cee611a9c565b6004546001600160a01b03163314610d485760405162461bcd60e51b815260206004820152601960248201527f4f6e6c7920726573656172636865722063616e20636c61696d0000000000000060448201526064016105fa565b6008548110610d695760405162461bcd60e51b81526004016105fa90612106565b60088181548110610d7c57610d7c612134565b600091825260209091206002600390920201015460ff16610ddf5760405162461bcd60e51b815260206004820181905260248201527f4d696c6573746f6e65206d75737420626520617070726f76656420666972737460448201526064016105fa565b60088181548110610df257610df2612134565b906000526020600020906003020160020160019054906101000a900460ff1615610e5e5760405162461bcd60e51b815260206004820152601b60248201527f4d696c6573746f6e6520616c72656164792077697468647261776e000000000060448201526064016105fa565b600954610100900460ff1615610e865760405162461bcd60e51b81526004016105fa906121b3565b600060088281548110610e9b57610e9b612134565b9060005260206000209060030201600101549050600160088381548110610ec457610ec4612134565b6000918252602090912060026003909202010180549115156101000261ff0019909216919091179055600954819060ff1615610f24576000612710610f0a60fa856120a5565b610f1491906120c2565b9050610f2081846121df565b9150505b600454600254610f41916001600160a01b03918216911683611af5565b827f6a38320f91a969089ef22b0c7b8700255d5d301e64dc5a55771b0e152e08d9f282604051610f7391815260200190565b60405180910390a25050610f8660018055565b50565b610f91611a9c565b6003546040516370a0823160e01b81523360048201526000916001600160a01b0316906370a0823190602401602060405180830381865afa158015610fda573d6000803e3d6000fd5b505050506040513d601f19601f82011682018060405250810190610ffe9190612076565b9050600081116110455760405162461bcd60e51b8152602060048201526012602482015271139bc8125415081d1bdad95b9cc81a195b1960721b60448201526064016105fa565b600354604080516318160ddd60e01b815290516000926001600160a01b0316916318160ddd9160048083019260209291908290030181865afa15801561108f573d6000803e3d6000fd5b505050506040513d601f19601f820116820180604052508101906110b39190612076565b9050600081116110f55760405162461bcd60e51b815260206004820152600d60248201526c4e6f2049505420737570706c7960981b60448201526064016105fa565b600081600a548461110691906120a5565b61111091906120c2565b336000908152600b60205260408120549192509061112e90836121df565b9050600081116111795760405162461bcd60e51b81526020600482015260166024820152754e6f20636c61696d61626c65206469766964656e647360501b60448201526064016105fa565b336000908152600b6020526040812080548392906111989084906121f2565b90915550506002546111b4906001600160a01b03163383611af5565b60405181815233907f5efa67896a23b651b741b525caacba039c00ca7853be3de8eb1f4269e8669c56906020016108c1565b6111ee611a9c565b60095460ff16156112415760405162461bcd60e51b815260206004820152601c60248201527f50726f6a65637420616c72656164792066756c6c792066756e6465640000000060448201526064016105fa565b600954610100900460ff16156112695760405162461bcd60e51b81526004016105fa906121b3565b600081116112ae5760405162461bcd60e51b81526020600482015260126024820152710416d6f756e74206d757374206265203e20360741b60448201526064016105fa565b6002546112c6906001600160a01b0316333084611b5d565b80600760008282546112d891906121f2565b909155505060405181815233907fc8cefeda7e3710fb64fe423aff7bcf0349d2dde24fb0b20a2a695b7dfa2030e69060200160405180910390a2600654600754106113e0576009805460ff19166001179055600654600090612710906113409060fa906120a5565b61134a91906120c2565b905080156113a35760055460025461136f916001600160a01b03918216911683611af5565b6040518181527f1e78db4c4ee9ca4946fb3ee60599d1e0258a8b22e183510241ff770ab6332baf9060200160405180910390a15b7fbdf8e8154212732e32053db049accdd4ff27639d7028ecf127e2353161b994bf6007546040516113d691815260200190565b60405180910390a1505b610f8660018055565b6113f1611b9b565b6108d66000611bf5565b6003546040516370a0823160e01b81526001600160a01b03838116600483015260009283929116906370a0823190602401602060405180830381865afa158015611449573d6000803e3d6000fd5b505050506040513d601f19601f8201168201806040525081019061146d9190612076565b90506000600360009054906101000a90046001600160a01b03166001600160a01b03166318160ddd6040518163ffffffff1660e01b8152600401602060405180830381865afa1580156114c4573d6000803e3d6000fd5b505050506040513d601f19601f820116820180604052508101906114e89190612076565b9050806000036114fc575060009392505050565b600081600a548461150d91906120a5565b61151791906120c2565b6001600160a01b0386166000908152600b602052604090205490915061059690826121df565b60065460008061271061155160fa856120a5565b61155b91906120c2565b91508160065461156b91906121df565b9050909192565b61157a611b9b565b600854811061159b5760405162461bcd60e51b81526004016105fa90612106565b60095460ff166115f85760405162461bcd60e51b815260206004820152602260248201527f50726f6a656374206d7573742062652066756c6c792066756e646564206669726044820152611cdd60f21b60648201526084016105fa565b600954610100900460ff16156116205760405162461bcd60e51b81526004016105fa906121b3565b6008818154811061163357611633612134565b600091825260209091206002600390920201015460ff16156116975760405162461bcd60e51b815260206004820152601a60248201527f4d696c6573746f6e6520616c726561647920617070726f76656400000000000060448201526064016105fa565b6001600882815481106116ac576116ac612134565b60009182526020822060039190910201600201805460ff19169215159290921790915560405182917f0adffe31a62a9e7e5068bdd6f839470d57dd0e18fac8a8d525196283eb9b392a91a250565b611702611b9b565b60095460ff166117545760405162461bcd60e51b815260206004820152601c60248201527f50726f6a656374206d7573742062652066756e6465642066697273740000000060448201526064016105fa565b600954610100900460ff16156117a55760405162461bcd60e51b8152602060048201526016602482015275141c9bda9958dd08185b1c9958591e4819985a5b195960521b60448201526064016105fa565b6009805461ff0019166101001790556040517fefcd87f8cee226e4c9323da29c19bf8e983a99a11bc5116affd28ac9dac10a0490600090a1565b6007546006546000816117f38460646120a5565b61156b91906120c2565b6008818154811061180d57600080fd5b90600052602060002090600302016000915090508060000180546118309061214a565b80601f016020809104026020016040519081016040528092919081815260200182805461185c9061214a565b80156118a95780601f1061187e576101008083540402835291602001916118a9565b820191906000526020600020905b81548152906001019060200180831161188c57829003601f168201915b50505050600183015460029093015491929160ff80821692506101009091041684565b6118d4611a9c565b600081116119195760405162461bcd60e51b81526020600482015260126024820152710416d6f756e74206d757374206265203e20360741b60448201526064016105fa565b600254611931906001600160a01b0316333084611b5d565b6000606461194083600a6120a5565b61194a91906120c2565b90506000606461195b84601e6120a5565b61196591906120c2565b905060008161197484866121df565b61197e91906121df565b60055460025491925061199e916001600160a01b03908116911685611af5565b6004546002546119bb916001600160a01b03918216911684611af5565b80600a60008282546119cd91906121f2565b90915550506040805185815260208101859052908101839052606081018290527f56ff443c2718dea9a86ce01cb3a2fccdc699bc448b4bf8c526b0d2496e98c8949060800160405180910390a1505050610f8660018055565b611a2e611b9b565b6001600160a01b038116611a935760405162461bcd60e51b815260206004820152602660248201527f4f776e61626c653a206e6577206f776e657220697320746865207a65726f206160448201526564647265737360d01b60648201526084016105fa565b610f8681611bf5565b600260015403611aee5760405162461bcd60e51b815260206004820152601f60248201527f5265656e7472616e637947756172643a207265656e7472616e742063616c6c0060448201526064016105fa565b6002600155565b6040516001600160a01b038316602482015260448101829052611b5890849063a9059cbb60e01b906064015b60408051601f198184030181529190526020810180516001600160e01b03166001600160e01b031990931692909217909152611c45565b505050565b6040516001600160a01b0380851660248301528316604482015260648101829052611b959085906323b872dd60e01b90608401611b21565b50505050565b6000546001600160a01b031633146108d65760405162461bcd60e51b815260206004820181905260248201527f4f776e61626c653a2063616c6c6572206973206e6f7420746865206f776e657260448201526064016105fa565b600080546001600160a01b038381166001600160a01b0319831681178455604051919092169283917f8be0079c531659141344cd1fd0a4f28419497f9722a3daafe3b4186f6b6457e09190a35050565b6000611c9a826040518060400160405280602081526020017f5361666545524332303a206c6f772d6c6576656c2063616c6c206661696c6564815250856001600160a01b0316611d1a9092919063ffffffff16565b9050805160001480611cbb575080806020019051810190611cbb91906120e4565b611b585760405162461bcd60e51b815260206004820152602a60248201527f5361666545524332303a204552433230206f7065726174696f6e20646964206e6044820152691bdd081cdd58d8d9595960b21b60648201526084016105fa565b6060611d298484600085611d31565b949350505050565b606082471015611d925760405162461bcd60e51b815260206004820152602660248201527f416464726573733a20696e73756666696369656e742062616c616e636520666f6044820152651c8818d85b1b60d21b60648201526084016105fa565b600080866001600160a01b03168587604051611dae9190612205565b60006040518083038185875af1925050503d8060008114611deb576040519150601f19603f3d011682016040523d82523d6000602084013e611df0565b606091505b5091509150611e0187838387611e0c565b979650505050505050565b60608315611e7b578251600003611e74576001600160a01b0385163b611e745760405162461bcd60e51b815260206004820152601d60248201527f416464726573733a2063616c6c20746f206e6f6e2d636f6e747261637400000060448201526064016105fa565b5081611d29565b611d298383815115611e905781518083602001fd5b8060405162461bcd60e51b81526004016105fa9190612221565b600060208284031215611ebc57600080fd5b81356001600160a01b0381168114611ed357600080fd5b9392505050565b600060208284031215611eec57600080fd5b5035919050565b60005b83811015611f0e578181015183820152602001611ef6565b50506000910152565b60008151808452611f2f816020860160208601611ef3565b601f01601f19169290920160200192915050565b608081526000611f566080830187611f17565b60208301959095525091151560408301521515606090910152919050565b600081518084526020808501945080840160005b83811015611fa457815187529582019590820190600101611f88565b509495945050505050565b600081518084526020808501945080840160005b83811015611fa4578151151587529582019590820190600101611fc3565b6000608082016080835280875180835260a08501915060a08160051b86010192506020808a0160005b8381101561203857609f19888703018552612026868351611f17565b9550938201939082019060010161200a565b50508584038187015250505061204e8187611f74565b905082810360408401526120628186611faf565b90508281036060840152611e018185611faf565b60006020828403121561208857600080fd5b5051919050565b634e487b7160e01b600052601160045260246000fd5b80820281158282048414176120bc576120bc61208f565b92915050565b6000826120df57634e487b7160e01b600052601260045260246000fd5b500490565b6000602082840312156120f657600080fd5b81518015158114611ed357600080fd5b602080825260149082015273125b9d985b1a59081b5a5b195cdd1bdb9948125160621b604082015260600190565b634e487b7160e01b600052603260045260246000fd5b600181811c9082168061215e57607f821691505b60208210810361217e57634e487b7160e01b600052602260045260246000fd5b50919050565b634e487b7160e01b600052604160045260246000fd5b6000600182016121ac576121ac61208f565b5060010190565b602080825260129082015271141c9bda9958dd081a185cc819985a5b195960721b604082015260600190565b818103818111156120bc576120bc61208f565b808201808211156120bc576120bc61208f565b60008251612217818460208701611ef3565b9190910192915050565b602081526000611ed36020830184611f1756fea26469706673582212201ce71741d708d92976dc8fdb99c5df00e28848694c1aaa5aa0c0e49d20a998ca64736f6c63430008140033",
  "linkReferences": {},
  "deployedLinkReferences": {}
}