{
  "_format": "hh-sol-artifact-1",
  "contractName": "MatDAO_IPNFT",
  "sourceName": "contracts/MatDAO_IPNFT.sol",
  "abi": [
    {
      "inputs": [],
      "stateMutability": "nonpayable",
      "type": "constructor"
    },
    {
      "anonymous": false,
      "inputs": [
        {
          "indexed": true,
          "internalType": "address",
          "name": "owner",
          "type": "address"
        },
        {
          "indexed": true,
          "internalType": "address",
          "name": "approved",
          "type": "address"
        },
        {
          "indexed": true,
          "internalType": "uint256",
          "name": "tokenId",
          "type": "uint256"
        }
      ],
      "name": "Approval",
      "type": "event"
    },
    {
      "anonymous": false,
      "inputs": [
        {
          "indexed": true,
          "internalType": "address",
          "name": "owner",
          "type": "address"
        },
        {
          "indexed": true,
          "internalType": "address",
          "name": "operator",
          "type": "address"
        },
        {
          "indexed": false,
          "internalType": "bool",
          "name": "approved",
          "type": "bool"
        }
      ],
      "name": "ApprovalForAll",
      "type": "event"
    },
    {
      "anonymous": false,
      "inputs": [
        {
          "indexed": false,
          "internalType": "uint256",
          "name": "_fromTokenId",
          "type": "uint256"
        },
        {
          "indexed": false,
          "internalType": "uint256",
          "name": "_toTokenId",
          "type": "uint256"
        }
      ],
      "name": "BatchMetadataUpdate",
      "type": "event"
    },
    {
      "anonymous": false,
      "inputs": [
        {
          "indexed": true,
          "internalType": "uint256",
          "name": "tokenId",
          "type": "uint256"
        },
        {
          "indexed": true,
          "internalType": "address",
          "name": "licensee",
          "type": "address"
        },
        {
          "indexed": false,
          "internalType": "uint256",
          "name": "expirationBlock",
          "type": "uint256"
        },
        {
          "indexed": false,
          "internalType": "bytes32",
          "name": "licenseTermsHash",
          "type": "bytes32"
        }
      ],
      "name": "CorporateLicenseRegistered",
      "type": "event"
    },
    {
      "anonymous": false,
      "inputs": [
        {
          "indexed": true,
          "internalType": "uint256",
          "name": "tokenId",
          "type": "uint256"
        },
        {
          "indexed": true,
          "internalType": "address",
          "name": "researcher",
          "type": "address"
        },
        {
          "indexed": false,
          "internalType": "string",
          "name": "tokenURI",
          "type": "string"
        },
        {
          "indexed": false,
          "internalType": "bytes32",
          "name": "legalHash",
          "type": "bytes32"
        }
      ],
      "name": "IPNFTMinted",
      "type": "event"
    },
    {
      "anonymous": false,
      "inputs": [
        {
          "indexed": false,
          "internalType": "uint256",
          "name": "_tokenId",
          "type": "uint256"
        }
      ],
      "name": "MetadataUpdate",
      "type": "event"
    },
    {
      "anonymous": false,
      "inputs": [
        {
          "indexed": true,
          "internalType": "address",
          "name": "previousOwner",
          "type": "address"
        },
        {
          "indexed": true,
          "internalType": "address",
          "name": "newOwner",
          "type": "address"
        }
      ],
      "name": "OwnershipTransferred",
      "type": "event"
    },
    {
      "anonymous": false,
      "inputs": [
        {
          "indexed": true,
          "internalType": "address",
          "name": "from",
          "type": "address"
        },
        {
          "indexed": true,
          "internalType": "address",
          "name": "to",
          "type": "address"
        },
        {
          "indexed": true,
          "internalType": "uint256",
          "name": "tokenId",
          "type": "uint256"
        }
      ],
      "name": "Transfer",
      "type": "event"
    },
    {
      "inputs": [
        {
          "internalType": "uint256",
          "name": "",
          "type": "uint256"
        },
        {
          "internalType": "uint256",
          "name": "",
          "type": "uint256"
        }
      ],
      "name": "activeLicenses",
      "outputs": [
        {
          "internalType": "address",
          "name": "licensee",
          "type": "address"
        },
        {
          "internalType": "uint256",
          "name": "expirationBlock",
          "type": "uint256"
        },
        {
          "internalType": "bytes32",
          "name": "licenseTermsHash",
          "type": "bytes32"
        }
      ],
      "stateMutability": "view",
      "type": "function"
    },
    {
      "inputs": [
        {
          "internalType": "address",
          "name": "to",
          "type": "address"
        },
        {
          "internalType": "uint256",
          "name": "tokenId",
          "type": "uint256"
        }
      ],
      "name": "approve",
      "outputs": [],
      "stateMutability": "nonpayable",
      "type": "function"
    },
    {
      "inputs": [
        {
          "internalType": "address",
          "name": "owner",
          "type": "address"
        }
      ],
      "name": "balanceOf",
      "outputs": [
        {
          "internalType": "uint256",
          "name": "",
          "type": "uint256"
        }
      ],
      "stateMutability": "view",
      "type": "function"
    },
    {
      "inputs": [
        {
          "internalType": "uint256",
          "name": "tokenId",
          "type": "uint256"
        }
      ],
      "name": "getActiveLicenses",
      "outputs": [
        {
          "internalType": "address[]",
          "name": "licensees",
          "type": "address[]"
        },
        {
          "internalType": "uint256[]",
          "name": "expirationBlocks",
          "type": "uint256[]"
        },
        {
          "internalType": "bytes32[]",
          "name": "licenseTermsHashes",
          "type": "bytes32[]"
        }
      ],
      "stateMutability": "view",
      "type": "function"
    },
    {
      "inputs": [
        {
          "internalType": "uint256",
          "name": "tokenId",
          "type": "uint256"
        }
      ],
      "name": "getApproved",
      "outputs": [
        {
          "internalType": "address",
          "name": "",
          "type": "address"
        }
      ],
      "stateMutability": "view",
      "type": "function"
    },
    {
      "inputs": [],
      "name": "getNextTokenId",
      "outputs": [
        {
          "internalType": "uint256",
          "name": "",
          "type": "uint256"
        }
      ],
      "stateMutability": "view",
      "type": "function"
    },
    {
      "inputs": [
        {
          "internalType": "address",
          "name": "owner",
          "type": "address"
        },
        {
          "internalType": "address",
          "name": "operator",
          "type": "address"
        }
      ],
      "name": "isApprovedForAll",
      "outputs": [
        {
          "internalType": "bool",
          "name": "",
          "type": "bool"
        }
      ],
      "stateMutability": "view",
      "type": "function"
    },
    {
      "inputs": [
        {
          "internalType": "uint256",
          "name": "",
          "type": "uint256"
        }
      ],
      "name": "legalAgreementHashes",
      "outputs": [
        {
          "internalType": "bytes32",
          "name": "",
          "type": "bytes32"
        }
      ],
      "stateMutability": "view",
      "type": "function"
    },
    {
      "inputs": [
        {
          "internalType": "address",
          "name": "researcher",
          "type": "address"
        },
        {
          "internalType": "string",
          "name": "_tokenURI",
          "type": "string"
        },
        {
          "internalType": "bytes32",
          "name": "_legalHash",
          "type": "bytes32"
        }
      ],
      "name": "mintIP",
      "outputs": [
        {
          "internalType": "uint256",
          "name": "",
          "type": "uint256"
        }
      ],
      "stateMutability": "nonpayable",
      "type": "function"
    },
    {
      "inputs": [],
      "name": "name",
      "outputs": [
        {
          "internalType": "string",
          "name": "",
          "type": "string"
        }
      ],
      "stateMutability": "view",
      "type": "function"
    },
    {
      "inputs": [
        {
          "internalType": "uint256",
          "name": "",
          "type": "uint256"
        }
      ],
      "name": "originalResearcher",
      "outputs": [
        {
          "internalType": "address",
          "name": "",
          "type": "address"
        }
      ],
      "stateMutability": "view",
      "type": "function"
    },
    {
      "inputs": [],
      "name": "owner",
      "outputs": [
        {
          "internalType": "address",
          "name": "",
          "type": "address"
        }
      ],
      "stateMutability": "view",
      "type": "function"
    },
    {
      "inputs": [
        {
          "internalType": "uint256",
          "name": "tokenId",
          "type": "uint256"
        }
      ],
      "name": "ownerOf",
      "outputs": [
        {
          "internalType": "address",
          "name": "",
          "type": "address"
        }
      ],
      "stateMutability": "view",
      "type": "function"
    },
    {
      "inputs": [
        {
          "internalType": "uint256",
          "name": "tokenId",
          "type": "uint256"
        },
        {
          "internalType": "address",
          "name": "licensee",
          "type": "address"
        },
        {
          "internalType": "uint256",
          "name": "durationBlocks",
          "type": "uint256"
        },
        {
          "internalType": "bytes32",
          "name": "licenseTermsHash",
          "type": "bytes32"
        }
      ],
      "name": "registerCorporateLicense",
      "outputs": [],
      "stateMutability": "nonpayable",
      "type": "function"
    },
    {
      "inputs": [],
      "name": "renounceOwnership",
      "outputs": [],
      "stateMutability": "nonpayable",
      "type": "function"
    },
    {
      "inputs": [
        {
          "internalType": "address",
          "name": "from",
          "type": "address"
        },
        {
          "internalType": "address",
          "name": "to",
          "type": "address"
        },
        {
          "internalType": "uint256",
          "name": "tokenId",
          "type": "uint256"
        }
      ],
      "name": "safeTransferFrom",
      "outputs": [],
      "stateMutability": "nonpayable",
      "type": "function"
    },
    {
      "inputs": [
        {
          "internalType": "address",
          "name": "from",
          "type": "address"
        },
        {
          "internalType": "address",
          "name": "to",
          "type": "address"
        },
        {
          "internalType": "uint256",
          "name": "tokenId",
          "type": "uint256"
        },
        {
          "internalType": "bytes",
          "name": "data",
          "type": "bytes"
        }
      ],
      "name": "safeTransferFrom",
      "outputs": [],
      "stateMutability": "nonpayable",
      "type": "function"
    },
    {
      "inputs": [
        {
          "internalType": "address",
          "name": "operator",
          "type": "address"
        },
        {
          "internalType": "bool",
          "name": "approved",
          "type": "bool"
        }
      ],
      "name": "setApprovalForAll",
      "outputs": [],
      "stateMutability": "nonpayable",
      "type": "function"
    },
    {
      "inputs": [
        {
          "internalType": "bytes4",
          "name": "interfaceId",
          "type": "bytes4"
        }
      ],
      "name": "supportsInterface",
      "outputs": [
        {
          "internalType": "bool",
          "name": "",
          "type": "bool"
        }
      ],
      "stateMutability": "view",
      "type": "function"
    },
    {
      "inputs": [],
      "name": "symbol",
      "outputs": [
        {
          "internalType": "string",
          "name": "",
          "type": "string"
        }
      ],
      "stateMutability": "view",
      "type": "function"
    },
    {
      "inputs": [
        {
          "internalType": "uint256",
          "name": "tokenId",
          "type": "uint256"
        }
      ],
      "name": "tokenURI",
      "outputs": [
        {
          "internalType": "string",
          "name": "",
          "type": "string"
        }
      ],
      "stateMutability": "view",
      "type": "function"
    },
    {
      "inputs": [],
      "name": "totalSupply",
      "outputs": [
        {
          "internalType": "uint256",
          "name": "",
          "type": "uint256"
        }
      ],
      "stateMutability": "view",
      "type": "function"
    },
    {
      "inputs": [
        {
          "internalType": "address",
          "name": "from",
          "type": "address"
        },
        {
          "internalType": "address",
          "name": "to",
          "type": "address"
        },
        {
          "internalType": "uint256",
          "name": "tokenId",
          "type": "uint256"
        }
      ],
      "name": "transferFrom",
      "outputs": [],
      "stateMutability": "nonpayable",
      "type": "function"
    },
    {
      "inputs": [
        {
          "internalType": "address",
          "name": "newOwner",
          "type": "address"
        }
      ],
      "name": "transferOwnership",
      "outputs": [],
      "stateMutability": "nonpayable",
      "type": "function"
    }
  ],
  "bytecode": "0x60806040523480156200001157600080fd5b506040518060400160405280600d81526020016c13585d111053c812540b539195609a1b8152506040518060400160405280600981526020016804d415444414f2d49560bc1b81525081600090816200006b91906200019d565b5060016200007a82826200019d565b5050506200009762000091620000a260201b60201c565b620000a6565b600160085562000269565b3390565b600780546001600160a01b038381166001600160a01b0319831681179093556040519116919082907f8be0079c531659141344cd1fd0a4f28419497f9722a3daafe3b4186f6b6457e090600090a35050565b634e487b7160e01b600052604160045260246000fd5b600181811c908216806200012357607f821691505b6020821081036200014457634e487b7160e01b600052602260045260246000fd5b50919050565b601f8211156200019857600081815260208120601f850160051c81016020861015620001735750805b601f850160051c820191505b8181101562000194578281556001016200017f565b5050505b505050565b81516001600160401b03811115620001b957620001b9620000f8565b620001d181620001ca84546200010e565b846200014a565b602080601f831160018114620002095760008415620001f05750858301515b600019600386901b1c1916600185901b17855562000194565b600085815260208120601f198616915b828110156200023a5788860151825594840194600190910190840162000219565b5085821015620002595787850151600019600388901b60f8161c191681555b5050505050600190811b01905550565b61201080620002796000396000f3fe608060405234801561001057600080fd5b50600436106101585760003560e01c80638da5cb5b116100c3578063c87b56dd1161007c578063c87b56dd14610301578063caa0f92a14610314578063e35748eb1461031c578063e985e9c51461032f578063f2fde38b14610342578063ff4174841461035557600080fd5b80638da5cb5b1461028d57806395d89b411461029e57806397eaaecd146102a6578063a22cb465146102b9578063b61e82c5146102cc578063b88d4fde146102ee57600080fd5b8063253a48ff11610115578063253a48ff146102035780633ee5be011461022c57806342842e0e1461024c5780636352211e1461025f57806370a0823114610272578063715018a61461028557600080fd5b806301ffc9a71461015d57806306fdde0314610185578063081812fc1461019a578063095ea7b3146101c557806318160ddd146101da57806323b872dd146101f0575b600080fd5b61017061016b366004611851565b61038d565b60405190151581526020015b60405180910390f35b61018d6103b8565b60405161017c91906118be565b6101ad6101a83660046118d1565b61044a565b6040516001600160a01b03909116815260200161017c565b6101d86101d3366004611906565b610471565b005b6101e261058b565b60405190815260200161017c565b6101d86101fe366004611930565b6105a1565b6101ad6102113660046118d1565b6009602052600090815260409020546001600160a01b031681565b6101e261023a3660046118d1565b600a6020526000908152604090205481565b6101d861025a366004611930565b6105d2565b6101ad61026d3660046118d1565b6105ed565b6101e261028036600461196c565b61064d565b6101d86106d3565b6007546001600160a01b03166101ad565b61018d6106e7565b6101e26102b4366004611a13565b6106f6565b6101d86102c7366004611a7e565b6107aa565b6102df6102da3660046118d1565b6107b9565b60405161017c93929190611af5565b6101d86102fc366004611b8c565b610a0f565b61018d61030f3660046118d1565b610a47565b6008546101e2565b6101d861032a366004611c08565b610b57565b61017061033d366004611c43565b610d39565b6101d861035036600461196c565b610d67565b610368610363366004611c76565b610de0565b604080516001600160a01b03909416845260208401929092529082015260600161017c565b60006001600160e01b03198216632483248360e11b14806103b257506103b282610e2c565b92915050565b6060600080546103c790611c98565b80601f01602080910402602001604051908101604052809291908181526020018280546103f390611c98565b80156104405780601f1061041557610100808354040283529160200191610440565b820191906000526020600020905b81548152906001019060200180831161042357829003601f168201915b5050505050905090565b600061045582610e7c565b506000908152600460205260409020546001600160a01b031690565b600061047c826105ed565b9050806001600160a01b0316836001600160a01b0316036104ee5760405162461bcd60e51b815260206004820152602160248201527f4552433732313a20617070726f76616c20746f2063757272656e74206f776e656044820152603960f91b60648201526084015b60405180910390fd5b336001600160a01b038216148061050a575061050a8133610d39565b61057c5760405162461bcd60e51b815260206004820152603d60248201527f4552433732313a20617070726f76652063616c6c6572206973206e6f7420746f60448201527f6b656e206f776e6572206f7220617070726f76656420666f7220616c6c00000060648201526084016104e5565b6105868383610edb565b505050565b6000600160085461059c9190611ce8565b905090565b6105ab3382610f49565b6105c75760405162461bcd60e51b81526004016104e590611cfb565b610586838383610fa7565b61058683838360405180602001604052806000815250610a0f565b6000818152600260205260408120546001600160a01b0316806103b25760405162461bcd60e51b8152602060048201526018602482015277115490cdcc8c4e881a5b9d985b1a59081d1bdad95b88125160421b60448201526064016104e5565b60006001600160a01b0382166106b75760405162461bcd60e51b815260206004820152602960248201527f4552433732313a2061646472657373207a65726f206973206e6f7420612076616044820152683634b21037bbb732b960b91b60648201526084016104e5565b506001600160a01b031660009081526003602052604090205490565b6106db61110b565b6106e56000611165565b565b6060600180546103c790611c98565b600061070061110b565b60085461070d85826111b7565b61071781856111d1565b600081815260096020908152604080832080546001600160a01b0319166001600160a01b038a16179055600a9091528120849055600880549161075983611d48565b9190505550846001600160a01b0316817f3086f4dbb9f1e3a25693193310e5b8612881c859c87f8dc08a84fd81452fdf7e868660405161079a929190611d61565b60405180910390a3949350505050565b6107b533838361129c565b5050565b60608060606000600b6000868152602001908152602001600020805480602002602001604051908101604052809291908181526020016000905b82821015610848576000848152602090819020604080516060810182526003860290920180546001600160a01b03168352600180820154848601526002909101549183019190915290835290920191016107f3565b505082519293508291505067ffffffffffffffff81111561086b5761086b611987565b604051908082528060200260200182016040528015610894578160200160208202803683370190505b5094508067ffffffffffffffff8111156108b0576108b0611987565b6040519080825280602002602001820160405280156108d9578160200160208202803683370190505b5093508067ffffffffffffffff8111156108f5576108f5611987565b60405190808252806020026020018201604052801561091e578160200160208202803683370190505b50925060005b81811015610a055782818151811061093e5761093e611d83565b60200260200101516000015186828151811061095c5761095c611d83565b60200260200101906001600160a01b031690816001600160a01b03168152505082818151811061098e5761098e611d83565b6020026020010151602001518582815181106109ac576109ac611d83565b6020026020010181815250508281815181106109ca576109ca611d83565b6020026020010151604001518482815181106109e8576109e8611d83565b6020908102919091010152806109fd81611d48565b915050610924565b5050509193909250565b610a193383610f49565b610a355760405162461bcd60e51b81526004016104e590611cfb565b610a418484848461136a565b50505050565b6060610a5282610e7c565b60008281526006602052604081208054610a6b90611c98565b80601f0160208091040260200160405190810160405280929190818152602001828054610a9790611c98565b8015610ae45780601f10610ab957610100808354040283529160200191610ae4565b820191906000526020600020905b815481529060010190602001808311610ac757829003601f168201915b505050505090506000610b0260408051602081019091526000815290565b90508051600003610b14575092915050565b815115610b46578082604051602001610b2e929190611d99565b60405160208183030381529060405292505050919050565b610b4f8461139d565b949350505050565b610b5f61110b565b6000848152600260205260409020546001600160a01b0316610bba5760405162461bcd60e51b8152602060048201526014602482015273151bdad95b88191bd95cc81b9bdd08195e1a5cdd60621b60448201526064016104e5565b6001600160a01b038316610c105760405162461bcd60e51b815260206004820152601860248201527f496e76616c6964206c6963656e7365652061646472657373000000000000000060448201526064016104e5565b60008211610c605760405162461bcd60e51b815260206004820152601960248201527f4475726174696f6e206d75737420626520706f7369746976650000000000000060448201526064016104e5565b600b60008581526020019081526020016000206040518060600160405280856001600160a01b031681526020018443610c999190611dc8565b81526020908101849052825460018082018555600094855293829020835160039092020180546001600160a01b0319166001600160a01b0392831617815591830151938201939093556040909101516002909101558316847f9163937f2bfe781b13c58a5d286f66b0459b63cb8c7e9d94bbd3d854bbe127fb610d1c8543611dc8565b60408051918252602082018690520160405180910390a350505050565b6001600160a01b03918216600090815260056020908152604080832093909416825291909152205460ff1690565b610d6f61110b565b6001600160a01b038116610dd45760405162461bcd60e51b815260206004820152602660248201527f4f776e61626c653a206e6577206f776e657220697320746865207a65726f206160448201526564647265737360d01b60648201526084016104e5565b610ddd81611165565b50565b600b6020528160005260406000208181548110610dfc57600080fd5b60009182526020909120600390910201805460018201546002909201546001600160a01b03909116935090915083565b60006001600160e01b031982166380ac58cd60e01b1480610e5d57506001600160e01b03198216635b5e139f60e01b145b806103b257506301ffc9a760e01b6001600160e01b03198316146103b2565b6000818152600260205260409020546001600160a01b0316610ddd5760405162461bcd60e51b8152602060048201526018602482015277115490cdcc8c4e881a5b9d985b1a59081d1bdad95b88125160421b60448201526064016104e5565b600081815260046020526040902080546001600160a01b0319166001600160a01b0384169081179091558190610f10826105ed565b6001600160a01b03167f8c5be1e5ebec7d5bd14f71427d1e84f3dd0314c0f7b2291e5b200ac8c7c3b92560405160405180910390a45050565b600080610f55836105ed565b9050806001600160a01b0316846001600160a01b03161480610f7c5750610f7c8185610d39565b80610b4f5750836001600160a01b0316610f958461044a565b6001600160a01b031614949350505050565b826001600160a01b0316610fba826105ed565b6001600160a01b031614610fe05760405162461bcd60e51b81526004016104e590611ddb565b6001600160a01b0382166110425760405162461bcd60e51b8152602060048201526024808201527f4552433732313a207472616e7366657220746f20746865207a65726f206164646044820152637265737360e01b60648201526084016104e5565b826001600160a01b0316611055826105ed565b6001600160a01b03161461107b5760405162461bcd60e51b81526004016104e590611ddb565b600081815260046020908152604080832080546001600160a01b03199081169091556001600160a01b0387811680865260038552838620805460001901905590871680865283862080546001019055868652600290945282852080549092168417909155905184937fddf252ad1be2c89b69c2b068fc378daa952ba7f163c4a11628f55a4df523b3ef91a4505050565b6007546001600160a01b031633146106e55760405162461bcd60e51b815260206004820181905260248201527f4f776e61626c653a2063616c6c6572206973206e6f7420746865206f776e657260448201526064016104e5565b600780546001600160a01b038381166001600160a01b0319831681179093556040519116919082907f8be0079c531659141344cd1fd0a4f28419497f9722a3daafe3b4186f6b6457e090600090a35050565b6107b5828260405180602001604052806000815250611411565b6000828152600260205260409020546001600160a01b031661124c5760405162461bcd60e51b815260206004820152602e60248201527f45524337323155524953746f726167653a2055524920736574206f66206e6f6e60448201526d32bc34b9ba32b73a103a37b5b2b760911b60648201526084016104e5565b60008281526006602052604090206112648282611e6e565b506040518281527ff8e1a15aba9398e019f0b49df1a4fde98ee17ae345cb5f6b5e2c27f5033e8ce79060200160405180910390a15050565b816001600160a01b0316836001600160a01b0316036112fd5760405162461bcd60e51b815260206004820152601960248201527f4552433732313a20617070726f766520746f2063616c6c65720000000000000060448201526064016104e5565b6001600160a01b03838116600081815260056020908152604080832094871680845294825291829020805460ff191686151590811790915591519182527f17307eab39ab6107e8899845ad3d59bd9653f200f220920489ca2b5937696c31910160405180910390a3505050565b611375848484610fa7565b61138184848484611444565b610a415760405162461bcd60e51b81526004016104e590611f2e565b60606113a882610e7c565b60006113bf60408051602081019091526000815290565b905060008151116113df576040518060200160405280600081525061140a565b806113e984611545565b6040516020016113fa929190611d99565b6040516020818303038152906040525b9392505050565b61141b83836115d8565b6114286000848484611444565b6105865760405162461bcd60e51b81526004016104e590611f2e565b60006001600160a01b0384163b1561153a57604051630a85bd0160e11b81526001600160a01b0385169063150b7a0290611488903390899088908890600401611f80565b6020604051808303816000875af19250505080156114c3575060408051601f3d908101601f191682019092526114c091810190611fbd565b60015b611520573d8080156114f1576040519150601f19603f3d011682016040523d82523d6000602084013e6114f6565b606091505b5080516000036115185760405162461bcd60e51b81526004016104e590611f2e565b805181602001fd5b6001600160e01b031916630a85bd0160e11b149050610b4f565b506001949350505050565b6060600061155283611763565b600101905060008167ffffffffffffffff81111561157257611572611987565b6040519080825280601f01601f19166020018201604052801561159c576020820181803683370190505b5090508181016020015b600019016f181899199a1a9b1b9c1cb0b131b232b360811b600a86061a8153600a85049450846115a657509392505050565b6001600160a01b03821661162e5760405162461bcd60e51b815260206004820181905260248201527f4552433732313a206d696e7420746f20746865207a65726f206164647265737360448201526064016104e5565b6000818152600260205260409020546001600160a01b0316156116935760405162461bcd60e51b815260206004820152601c60248201527f4552433732313a20746f6b656e20616c7265616479206d696e7465640000000060448201526064016104e5565b6000818152600260205260409020546001600160a01b0316156116f85760405162461bcd60e51b815260206004820152601c60248201527f4552433732313a20746f6b656e20616c7265616479206d696e7465640000000060448201526064016104e5565b6001600160a01b038216600081815260036020908152604080832080546001019055848352600290915280822080546001600160a01b0319168417905551839291907fddf252ad1be2c89b69c2b068fc378daa952ba7f163c4a11628f55a4df523b3ef908290a45050565b60008072184f03e93ff9f4daa797ed6e38ed64bf6a1f0160401b83106117a25772184f03e93ff9f4daa797ed6e38ed64bf6a1f0160401b830492506040015b6d04ee2d6d415b85acef810000000083106117ce576d04ee2d6d415b85acef8100000000830492506020015b662386f26fc1000083106117ec57662386f26fc10000830492506010015b6305f5e1008310611804576305f5e100830492506008015b612710831061181857612710830492506004015b6064831061182a576064830492506002015b600a83106103b25760010192915050565b6001600160e01b031981168114610ddd57600080fd5b60006020828403121561186357600080fd5b813561140a8161183b565b60005b83811015611889578181015183820152602001611871565b50506000910152565b600081518084526118aa81602086016020860161186e565b601f01601f19169290920160200192915050565b60208152600061140a6020830184611892565b6000602082840312156118e357600080fd5b5035919050565b80356001600160a01b038116811461190157600080fd5b919050565b6000806040838503121561191957600080fd5b611922836118ea565b946020939093013593505050565b60008060006060848603121561194557600080fd5b61194e846118ea565b925061195c602085016118ea565b9150604084013590509250925092565b60006020828403121561197e57600080fd5b61140a826118ea565b634e487b7160e01b600052604160045260246000fd5b600067ffffffffffffffff808411156119b8576119b8611987565b604051601f8501601f19908116603f011681019082821181831017156119e0576119e0611987565b816040528093508581528686860111156119f957600080fd5b858560208301376000602087830101525050509392505050565b600080600060608486031215611a2857600080fd5b611a31846118ea565b9250602084013567ffffffffffffffff811115611a4d57600080fd5b8401601f81018613611a5e57600080fd5b611a6d8682356020840161199d565b925050604084013590509250925092565b60008060408385031215611a9157600080fd5b611a9a836118ea565b915060208301358015158114611aaf57600080fd5b809150509250929050565b600081518084526020808501945080840160005b83811015611aea57815187529582019590820190600101611ace565b509495945050505050565b606080825284519082018190526000906020906080840190828801845b82811015611b375781516001600160a01b031684529284019290840190600101611b12565b5050508381038285015285518082528683019183019060005b81811015611b6c57835183529284019291840191600101611b50565b50508481036040860152611b808187611aba565b98975050505050505050565b60008060008060808587031215611ba257600080fd5b611bab856118ea565b9350611bb9602086016118ea565b925060408501359150606085013567ffffffffffffffff811115611bdc57600080fd5b8501601f81018713611bed57600080fd5b611bfc8782356020840161199d565b91505092959194509250565b60008060008060808587031215611c1e57600080fd5b84359350611c2e602086016118ea565b93969395505050506040820135916060013590565b60008060408385031215611c5657600080fd5b611c5f836118ea565b9150611c6d602084016118ea565b90509250929050565b60008060408385031215611c8957600080fd5b50508035926020909101359150565b600181811c90821680611cac57607f821691505b602082108103611ccc57634e487b7160e01b600052602260045260246000fd5b50919050565b634e487b7160e01b600052601160045260246000fd5b818103818111156103b2576103b2611cd2565b6020808252602d908201527f4552433732313a2063616c6c6572206973206e6f7420746f6b656e206f776e6560408201526c1c881bdc88185c1c1c9bdd9959609a1b606082015260800190565b600060018201611d5a57611d5a611cd2565b5060010190565b604081526000611d746040830185611892565b90508260208301529392505050565b634e487b7160e01b600052603260045260246000fd5b60008351611dab81846020880161186e565b835190830190611dbf81836020880161186e565b01949350505050565b808201808211156103b2576103b2611cd2565b60208082526025908201527f4552433732313a207472616e736665722066726f6d20696e636f72726563742060408201526437bbb732b960d91b606082015260800190565b601f82111561058657600081815260208120601f850160051c81016020861015611e475750805b601f850160051c820191505b81811015611e6657828155600101611e53565b505050505050565b815167ffffffffffffffff811115611e8857611e88611987565b611e9c81611e968454611c98565b84611e20565b602080601f831160018114611ed15760008415611eb95750858301515b600019600386901b1c1916600185901b178555611e66565b600085815260208120601f198616915b82811015611f0057888601518255948401946001909101908401611ee1565b5085821015611f1e5787850151600019600388901b60f8161c191681555b5050505050600190811b01905550565b60208082526032908201527f4552433732313a207472616e7366657220746f206e6f6e20455243373231526560408201527131b2b4bb32b91034b6b83632b6b2b73a32b960711b606082015260800190565b6001600160a01b0385811682528416602082015260408101839052608060608201819052600090611fb390830184611892565b9695505050505050565b600060208284031215611fcf57600080fd5b815161140a8161183b56fea2646970667358221220c1a7e19b434ecf98f9e59f13598b0eed6d506fa126e305f6fa9c767b1a4f6e3d64736f6c63430008140033",
  "linkReferences": {},
  "deployedLinkReferences": {}
}