{
  "_format": "hh-sol-artifact-1",
  "contractName": "SwapRouter",
  "sourceName": "contracts/SwapRouter.sol",
  "abi": [
    {
      "inputs": [],
      "stateMutability": "nonpayable",
      "type": "constructor"
    },
    {
      "anonymous": false,
      "inputs": [
        {
          "indexed": true,
          "internalType": "address",
          "name": "previousOwner",
          "type": "address"
        },
        {
          "indexed": true,
          "internalType": "address",
          "name": "newOwner",
          "type": "address"
        }
      ],
      "name": "OwnershipTransferred",
      "type": "event"
    },
    {
      "anonymous": false,
      "inputs": [
        {
          "indexed": true,
          "internalType": "address",
          "name": "user",
          "type": "address"
        },
        {
          "indexed": true,
          "internalType": "address",
          "name": "tokenIn",
          "type": "address"
        },
        {
          "indexed": true,
          "internalType": "address",
          "name": "tokenOut",
          "type": "address"
        },
        {
          "indexed": false,
          "internalType": "uint256",
          "name": "amountIn",
          "type": "uint256"
        },
        {
          "indexed": false,
          "internalType": "uint256",
          "name": "amountOut",
          "type": "uint256"
        }
      ],
      "name": "Swapped",
      "type": "event"
    },
    {
      "inputs": [],
      "name": "ETH_PER_USDC",
      "outputs": [
        {
          "internalType": "uint256",
          "name": "",
          "type": "uint256"
        }
      ],
      "stateMutability": "view",
      "type": "function"
    },
    {
      "inputs": [],
      "name": "USDC_PER_ETH",
      "outputs": [
        {
          "internalType": "uint256",
          "name": "",
          "type": "uint256"
        }
      ],
      "stateMutability": "view",
      "type": "function"
    },
    {
      "inputs": [
        {
          "internalType": "address",
          "name": "usdcAddress",
          "type": "address"
        },
        {
          "internalType": "uint256",
          "name": "usdcAmount",
          "type": "uint256"
        }
      ],
      "name": "addLiquidity",
      "outputs": [],
      "stateMutability": "payable",
      "type": "function"
    },
    {
      "inputs": [],
      "name": "getExchangeRate",
      "outputs": [
        {
          "internalType": "uint256",
          "name": "ethPerUsdc",
          "type": "uint256"
        },
        {
          "internalType": "uint256",
          "name": "usdcPerEth",
          "type": "uint256"
        }
      ],
      "stateMutability": "pure",
      "type": "function"
    },
    {
      "inputs": [
        {
          "internalType": "uint256",
          "name": "ethAmount",
          "type": "uint256"
        }
      ],
      "name": "getQuoteETHForUSDC",
      "outputs": [
        {
          "internalType": "uint256",
          "name": "usdcAmount",
          "type": "uint256"
        }
      ],
      "stateMutability": "pure",
      "type": "function"
    },
    {
      "inputs": [
        {
          "internalType": "uint256",
          "name": "usdcAmount",
          "type": "uint256"
        }
      ],
      "name": "getQuoteUSDCForETH",
      "outputs": [
        {
          "internalType": "uint256",
          "name": "ethAmount",
          "type": "uint256"
        }
      ],
      "stateMutability": "pure",
      "type": "function"
    },
    {
      "inputs": [],
      "name": "owner",
      "outputs": [
        {
          "internalType": "address",
          "name": "",
          "type": "address"
        }
      ],
      "stateMutability": "view",
      "type": "function"
    },
    {
      "inputs": [
        {
          "internalType": "address",
          "name": "usdcAddress",
          "type": "address"
        },
        {
          "internalType": "uint256",
          "name": "usdcAmount",
          "type": "uint256"
        },
        {
          "internalType": "uint256",
          "name": "ethAmount",
          "type": "uint256"
        }
      ],
      "name": "removeLiquidity",
      "outputs": [],
      "stateMutability": "nonpayable",
      "type": "function"
    },
    {
      "inputs": [],
      "name": "renounceOwnership",
      "outputs": [],
      "stateMutability": "nonpayable",
      "type": "function"
    },
    {
      "inputs": [
        {
          "internalType": "address",
          "name": "usdcAddress",
          "type": "address"
        }
      ],
      "name": "swapETHForUSDC",
      "outputs": [],
      "stateMutability": "payable",
      "type": "function"
    },
    {
      "inputs": [
        {
          "internalType": "address",
          "name": "usdcAddress",
          "type": "address"
        },
        {
          "internalType": "uint256",
          "name": "usdcAmount",
          "type": "uint256"
        }
      ],
      "name": "swapUSDCForETH",
      "outputs": [],
      "stateMutability": "nonpayable",
      "type": "function"
    },
    {
      "inputs": [
        {
          "internalType": "address",
          "name": "newOwner",
          "type": "address"
        }
      ],
      "name": "transferOwnership",
      "outputs": [],
      "stateMutability": "nonpayable",
      "type": "function"
    },
    {
      "stateMutability": "payable",
      "type": "receive"
    }
  ],
  "bytecode": "0x608060405234801561001057600080fd5b5061001a3361001f565b61006f565b600080546001600160a01b038381166001600160a01b0319831681178455604051919092169283917f8be0079c531659141344cd1fd0a4f28419497f9722a3daafe3b4186f6b6457e09190a35050565b610c2e8061007e6000396000f3fe6080604052600436106100ab5760003560e01c8063ad2126e511610064578063ad2126e514610172578063d0c981a01461018d578063e38192e3146101a0578063e6aa216c146101c0578063f08d8728146101e9578063f2fde38b1461020957600080fd5b8063118fe213146100b757806356688700146100e05780635e07217a146100f557806367f98d0814610115578063715018a6146101355780638da5cb5b1461014a57600080fd5b366100b257005b600080fd5b3480156100c357600080fd5b506100cd610d0581565b6040519081526020015b60405180910390f35b6100f36100ee366004610a6b565b610229565b005b34801561010157600080fd5b506100cd610110366004610a95565b6102ad565b34801561012157600080fd5b506100cd610130366004610a95565b6102d4565b34801561014157600080fd5b506100f36102eb565b34801561015657600080fd5b506000546040516001600160a01b0390911681526020016100d7565b34801561017e57600080fd5b506100cd660110d9316ec00081565b6100f361019b366004610aae565b6102ff565b3480156101ac57600080fd5b506100f36101bb366004610ad0565b61047f565b3480156101cc57600080fd5b5060408051660110d9316ec0008152610d056020820152016100d7565b3480156101f557600080fd5b506100f3610204366004610a6b565b6104d0565b34801561021557600080fd5b506100f3610224366004610aae565b610626565b61023161069f565b6000341180156102415750600081115b6102925760405162461bcd60e51b815260206004820152601e60248201527f4d7573742070726f7669646520626f74682045544820616e642055534443000060448201526064015b60405180910390fd5b816102a86001600160a01b0382163330856106f9565b505050565b6000670de0b6b3a76400006102c4610d0584610b03565b6102ce9190610b28565b92915050565b6000620f42406102c4660110d9316ec00084610b03565b6102f361069f565b6102fd600061076a565b565b6000341161033f5760405162461bcd60e51b815260206004820152600d60248201526c09aeae6e840e6cadcc8408aa89609b1b6044820152606401610289565b6000670de0b6b3a7640000610356610d0534610b03565b6103609190610b28565b6040516370a0823160e01b8152306004820152909150829082906001600160a01b038316906370a0823190602401602060405180830381865afa1580156103ab573d6000803e3d6000fd5b505050506040513d601f19601f820116820180604052508101906103cf9190610b4a565b101561041d5760405162461bcd60e51b815260206004820152601b60248201527f496e73756666696369656e742055534443206c697175696469747900000000006044820152606401610289565b6104316001600160a01b03821633846107ba565b60408051348152602081018490526001600160a01b0385169160009133917f6782190c91d4a7e8ad2a867deed6ec0a970cab8ff137ae2bd4abd92b3810f4d3910160405180910390a4505050565b61048761069f565b8261049c6001600160a01b03821633856107ba565b604051339083156108fc029084906000818181858888f193505050501580156104c9573d6000803e3d6000fd5b5050505050565b600081116105205760405162461bcd60e51b815260206004820152601860248201527f4d7573742073706563696679205553444320616d6f756e7400000000000000006044820152606401610289565b816105366001600160a01b0382163330856106f9565b6000620f424061054d660110d9316ec00085610b03565b6105579190610b28565b9050804710156105a95760405162461bcd60e51b815260206004820152601a60248201527f496e73756666696369656e7420455448206c69717569646974790000000000006044820152606401610289565b604051339082156108fc029083906000818181858888f193505050501580156105d6573d6000803e3d6000fd5b5060408051848152602081018390526000916001600160a01b0387169133917f6782190c91d4a7e8ad2a867deed6ec0a970cab8ff137ae2bd4abd92b3810f4d3910160405180910390a450505050565b61062e61069f565b6001600160a01b0381166106935760405162461bcd60e51b815260206004820152602660248201527f4f776e61626c653a206e6577206f776e657220697320746865207a65726f206160448201526564647265737360d01b6064820152608401610289565b61069c8161076a565b50565b6000546001600160a01b031633146102fd5760405162461bcd60e51b815260206004820181905260248201527f4f776e61626c653a2063616c6c6572206973206e6f7420746865206f776e65726044820152606401610289565b6040516001600160a01b03808516602483015283166044820152606481018290526107649085906323b872dd60e01b906084015b60408051601f198184030181529190526020810180516001600160e01b03166001600160e01b0319909316929092179091526107ea565b50505050565b600080546001600160a01b038381166001600160a01b0319831681178455604051919092169283917f8be0079c531659141344cd1fd0a4f28419497f9722a3daafe3b4186f6b6457e09190a35050565b6040516001600160a01b0383166024820152604481018290526102a890849063a9059cbb60e01b9060640161072d565b600061083f826040518060400160405280602081526020017f5361666545524332303a206c6f772d6c6576656c2063616c6c206661696c6564815250856001600160a01b03166108bf9092919063ffffffff16565b90508051600014806108605750808060200190518101906108609190610b63565b6102a85760405162461bcd60e51b815260206004820152602a60248201527f5361666545524332303a204552433230206f7065726174696f6e20646964206e6044820152691bdd081cdd58d8d9595960b21b6064820152608401610289565b60606108ce84846000856108d6565b949350505050565b6060824710156109375760405162461bcd60e51b815260206004820152602660248201527f416464726573733a20696e73756666696369656e742062616c616e636520666f6044820152651c8818d85b1b60d21b6064820152608401610289565b600080866001600160a01b031685876040516109539190610ba9565b60006040518083038185875af1925050503d8060008114610990576040519150601f19603f3d011682016040523d82523d6000602084013e610995565b606091505b50915091506109a6878383876109b1565b979650505050505050565b60608315610a20578251600003610a19576001600160a01b0385163b610a195760405162461bcd60e51b815260206004820152601d60248201527f416464726573733a2063616c6c20746f206e6f6e2d636f6e74726163740000006044820152606401610289565b50816108ce565b6108ce8383815115610a355781518083602001fd5b8060405162461bcd60e51b81526004016102899190610bc5565b80356001600160a01b0381168114610a6657600080fd5b919050565b60008060408385031215610a7e57600080fd5b610a8783610a4f565b946020939093013593505050565b600060208284031215610aa757600080fd5b5035919050565b600060208284031215610ac057600080fd5b610ac982610a4f565b9392505050565b600080600060608486031215610ae557600080fd5b610aee84610a4f565b95602085013595506040909401359392505050565b80820281158282048414176102ce57634e487b7160e01b600052601160045260246000fd5b600082610b4557634e487b7160e01b600052601260045260246000fd5b500490565b600060208284031215610b5c57600080fd5b5051919050565b600060208284031215610b7557600080fd5b81518015158114610ac957600080fd5b60005b83811015610ba0578181015183820152602001610b88565b50506000910152565b60008251610bbb818460208701610b85565b9190910192915050565b6020815260008251806020840152610be4816040850160208701610b85565b601f01601f1916919091016040019291505056fea264697066735822122036e3e7e49f43587e37b83bbd030a8d9704d1cb3510896f78aa1c962e0e26dd2b64736f6c63430008140033",
  "linkReferences": {},
  "deployedLinkReferences": {}
}