{
  "_format": "hh-sol-artifact-1",
  "contractName": "MatDAO_Swap",
  "sourceName": "contracts/MatDAO_Swap.sol",
  "abi": [
    {
      "inputs": [
        {
          "internalType": "address",
          "name": "_usdcToken",
          "type": "address"
        },
        {
          "internalType": "address",
          "name": "_iptToken",
          "type": "address"
        },
        {
          "internalType": "uint256",
          "name": "_exchangeRate",
          "type": "uint256"
        }
      ],
      "stateMutability": "nonpayable",
      "type": "constructor"
    },
    {
      "anonymous": false,
      "inputs": [
        {
          "indexed": false,
          "internalType": "uint256",
          "name": "newRate",
          "type": "uint256"
        }
      ],
      "name": "ExchangeRateUpdated",
      "type": "event"
    },
    {
      "anonymous": false,
      "inputs": [
        {
          "indexed": false,
          "internalType": "uint256",
          "name": "usdcAmount",
          "type": "uint256"
        },
        {
          "indexed": false,
          "internalType": "uint256",
          "name": "iptAmount",
          "type": "uint256"
        }
      ],
      "name": "LiquidityAdded",
      "type": "event"
    },
    {
      "anonymous": false,
      "inputs": [
        {
          "indexed": false,
          "internalType": "uint256",
          "name": "usdcAmount",
          "type": "uint256"
        },
        {
          "indexed": false,
          "internalType": "uint256",
          "name": "iptAmount",
          "type": "uint256"
        }
      ],
      "name": "LiquidityRemoved",
      "type": "event"
    },
    {
      "anonymous": false,
      "inputs": [
        {
          "indexed": true,
          "internalType": "address",
          "name": "previousOwner",
          "type": "address"
        },
        {
          "indexed": true,
          "internalType": "address",
          "name": "newOwner",
          "type": "address"
        }
      ],
      "name": "OwnershipTransferred",
      "type": "event"
    },
    {
      "anonymous": false,
      "inputs": [
        {
          "indexed": true,
          "internalType": "address",
          "name": "user",
          "type": "address"
        },
        {
          "indexed": false,
          "internalType": "uint256",
          "name": "iptAmount",
          "type": "uint256"
        },
        {
          "indexed": false,
          "internalType": "uint256",
          "name": "usdcAmount",
          "type": "uint256"
        }
      ],
      "name": "SwapIPTForUSDC",
      "type": "event"
    },
    {
      "anonymous": false,
      "inputs": [
        {
          "indexed": true,
          "internalType": "address",
          "name": "user",
          "type": "address"
        },
        {
          "indexed": false,
          "internalType": "uint256",
          "name": "usdcAmount",
          "type": "uint256"
        },
        {
          "indexed": false,
          "internalType": "uint256",
          "name": "iptAmount",
          "type": "uint256"
        }
      ],
      "name": "SwapUSDCForIPT",
      "type": "event"
    },
    {
      "inputs": [
        {
          "internalType": "uint256",
          "name": "usdcAmount",
          "type": "uint256"
        },
        {
          "internalType": "uint256",
          "name": "iptAmount",
          "type": "uint256"
        }
      ],
      "name": "addLiquidity",
      "outputs": [],
      "stateMutability": "nonpayable",
      "type": "function"
    },
    {
      "inputs": [],
      "name": "exchangeRate",
      "outputs": [
        {
          "internalType": "uint256",
          "name": "",
          "type": "uint256"
        }
      ],
      "stateMutability": "view",
      "type": "function"
    },
    {
      "inputs": [],
      "name": "getLiquidityStatus",
      "outputs": [
        {
          "internalType": "uint256",
          "name": "usdcBalance",
          "type": "uint256"
        },
        {
          "internalType": "uint256",
          "name": "iptBalance",
          "type": "uint256"
        },
        {
          "internalType": "uint256",
          "name": "currentRate",
          "type": "uint256"
        }
      ],
      "stateMutability": "view",
      "type": "function"
    },
    {
      "inputs": [
        {
          "internalType": "uint256",
          "name": "iptAmount",
          "type": "uint256"
        }
      ],
      "name": "getQuoteIPTForUSDC",
      "outputs": [
        {
          "internalType": "uint256",
          "name": "",
          "type": "uint256"
        }
      ],
      "stateMutability": "view",
      "type": "function"
    },
    {
      "inputs": [
        {
          "internalType": "uint256",
          "name": "usdcAmount",
          "type": "uint256"
        }
      ],
      "name": "getQuoteUSDCForIPT",
      "outputs": [
        {
          "internalType": "uint256",
          "name": "",
          "type": "uint256"
        }
      ],
      "stateMutability": "view",
      "type": "function"
    },
    {
      "inputs": [],
      "name": "iptToken",
      "outputs": [
        {
          "internalType": "contract IERC20",
          "name": "",
          "type": "address"
        }
      ],
      "stateMutability": "view",
      "type": "function"
    },
    {
      "inputs": [],
      "name": "owner",
      "outputs": [
        {
          "internalType": "address",
          "name": "",
          "type": "address"
        }
      ],
      "stateMutability": "view",
      "type": "function"
    },
    {
      "inputs": [
        {
          "internalType": "uint256",
          "name": "usdcAmount",
          "type": "uint256"
        },
        {
          "internalType": "uint256",
          "name": "iptAmount",
          "type": "uint256"
        }
      ],
      "name": "removeLiquidity",
      "outputs": [],
      "stateMutability": "nonpayable",
      "type": "function"
    },
    {
      "inputs": [],
      "name": "renounceOwnership",
      "outputs": [],
      "stateMutability": "nonpayable",
      "type": "function"
    },
    {
      "inputs": [
        {
          "internalType": "uint256",
          "name": "_exchangeRate",
          "type": "uint256"
        }
      ],
      "name": "setExchangeRate",
      "outputs": [],
      "stateMutability": "nonpayable",
      "type": "function"
    },
    {
      "inputs": [
        {
          "internalType": "uint256",
          "name": "iptAmount",
          "type": "uint256"
        }
      ],
      "name": "swapIPTForUSDC",
      "outputs": [],
      "stateMutability": "nonpayable",
      "type": "function"
    },
    {
      "inputs": [
        {
          "internalType": "uint256",
          "name": "usdcAmount",
          "type": "uint256"
        }
      ],
      "name": "swapUSDCForIPT",
      "outputs": [],
      "stateMutability": "nonpayable",
      "type": "function"
    },
    {
      "inputs": [
        {
          "internalType": "address",
          "name": "newOwner",
          "type": "address"
        }
      ],
      "name": "transferOwnership",
      "outputs": [],
      "stateMutability": "nonpayable",
      "type": "function"
    },
    {
      "inputs": [],
      "name": "usdcToken",
      "outputs": [
        {
          "internalType": "contract IERC20",
          "name": "",
          "type": "address"
        }
      ],
      "stateMutability": "view",
      "type": "function"
    }
  ],
  "bytecode": "0x60806040523480156200001157600080fd5b50604051620012d4380380620012d48339810160408190526200003491620001d8565b6200003f336200016b565b600180556001600160a01b038316620000945760405162461bcd60e51b815260206004820152601260248201527124b73b30b634b2102aa9a221903a37b5b2b760711b60448201526064015b60405180910390fd5b6001600160a01b038216620000e05760405162461bcd60e51b815260206004820152601160248201527024b73b30b634b21024a82a103a37b5b2b760791b60448201526064016200008b565b60008111620001325760405162461bcd60e51b815260206004820152601560248201527f496e76616c69642065786368616e67652072617465000000000000000000000060448201526064016200008b565b600280546001600160a01b039485166001600160a01b031991821617909155600380549390941692169190911790915560045562000219565b600080546001600160a01b038381166001600160a01b0319831681178455604051919092169283917f8be0079c531659141344cd1fd0a4f28419497f9722a3daafe3b4186f6b6457e09190a35050565b80516001600160a01b0381168114620001d357600080fd5b919050565b600080600060608486031215620001ee57600080fd5b620001f984620001bb565b92506200020960208501620001bb565b9150604084015190509250925092565b6110ab80620002296000396000f3fe608060405234801561001057600080fd5b50600436106100ea5760003560e01c80637e5ce8021161008c5780639d7de6b3116100665780639d7de6b3146101d3578063db068e0e146101e6578063e0aa26bd146101f9578063f2fde38b1461020c57600080fd5b80637e5ce8021461019c5780638da5cb5b146101af5780639cd441da146101c057600080fd5b80634393b69a116100c85780634393b69a1461015957806346c90e641461016c57806364954b5c1461017f578063715018a61461019457600080fd5b806311eac855146100ef5780633ba0b9a91461011f5780633c0717fd14610136575b600080fd5b600254610102906001600160a01b031681565b6040516001600160a01b0390911681526020015b60405180910390f35b61012860045481565b604051908152602001610116565b61013e61021f565b60408051938452602084019290925290820152606001610116565b610128610167366004610f15565b610309565b61012861017a366004610f15565b61032c565b61019261018d366004610f15565b610340565b005b610192610533565b600354610102906001600160a01b031681565b6000546001600160a01b0316610102565b6101926101ce366004610f2e565b610547565b6101926101e1366004610f2e565b61060f565b6101926101f4366004610f15565b610828565b610192610207366004610f15565b6108b3565b61019261021a366004610f50565b610a91565b6002546040516370a0823160e01b8152306004820152600091829182916001600160a01b0316906370a0823190602401602060405180830381865afa15801561026c573d6000803e3d6000fd5b505050506040513d601f19601f820116820180604052508101906102909190610f80565b6003546040516370a0823160e01b81523060048201529194506001600160a01b0316906370a0823190602401602060405180830381865afa1580156102d9573d6000803e3d6000fd5b505050506040513d601f19601f820116820180604052508101906102fd9190610f80565b91506004549050909192565b60045460009061031c83620f4240610f99565b6103269190610fbe565b92915050565b6000620f42406004548361031c9190610f99565b610348610b07565b600081116103925760405162461bcd60e51b81526020600482015260126024820152710416d6f756e74206d757374206265203e20360741b60448201526064015b60405180910390fd5b6004546000906103a583620f4240610f99565b6103af9190610fbe565b9050600081116104015760405162461bcd60e51b815260206004820152601a60248201527f496e73756666696369656e742065786368616e676520726174650000000000006044820152606401610389565b6003546040516370a0823160e01b815230600482015282916001600160a01b0316906370a0823190602401602060405180830381865afa158015610449573d6000803e3d6000fd5b505050506040513d601f19601f8201168201806040525081019061046d9190610f80565b10156104bb5760405162461bcd60e51b815260206004820152601a60248201527f496e73756666696369656e7420495054206c69717569646974790000000000006044820152606401610389565b6002546104d3906001600160a01b0316333085610b60565b6003546104ea906001600160a01b03163383610bd1565b604080518381526020810183905233917fa606f7c913e0f197b53a213e5dc8cff86bfcbcd0c781789659a09d24dc4f22ce91015b60405180910390a25061053060018055565b50565b61053b610c06565b6105456000610c60565b565b61054f610c06565b60008211801561055f5750600081115b6105a15760405162461bcd60e51b81526020600482015260136024820152720416d6f756e7473206d757374206265203e203606c1b6044820152606401610389565b6002546105b9906001600160a01b0316333085610b60565b6003546105d1906001600160a01b0316333084610b60565b60408051838152602081018390527f38f8a0c92f4c5b0b6877f878cb4c0c8d348a47b76d716c8e78f425043df9515b91015b60405180910390a15050565b610617610c06565b6000821180156106275750600081115b6106695760405162461bcd60e51b81526020600482015260136024820152720416d6f756e7473206d757374206265203e203606c1b6044820152606401610389565b6002546040516370a0823160e01b815230600482015283916001600160a01b0316906370a0823190602401602060405180830381865afa1580156106b1573d6000803e3d6000fd5b505050506040513d601f19601f820116820180604052508101906106d59190610f80565b10156107175760405162461bcd60e51b8152602060048201526011602482015270496e73756666696369656e74205553444360781b6044820152606401610389565b6003546040516370a0823160e01b815230600482015282916001600160a01b0316906370a0823190602401602060405180830381865afa15801561075f573d6000803e3d6000fd5b505050506040513d601f19601f820116820180604052508101906107839190610f80565b10156107c45760405162461bcd60e51b815260206004820152601060248201526f125b9cdd59999a58da595b9d0812541560821b6044820152606401610389565b6002546107db906001600160a01b03163384610bd1565b6003546107f2906001600160a01b03163383610bd1565b60408051838152602081018390527f6f0f96292ae0038c04f9b6bab30f185d9ca02c471d0983f563f2a4f674aef1379101610603565b610830610c06565b600081116108785760405162461bcd60e51b8152602060048201526015602482015274496e76616c69642065786368616e6765207261746560581b6044820152606401610389565b60048190556040518181527f388f446e9526fe5c9af20a5919b342370c8a7c0cb05245afe1e545658fa3cdba9060200160405180910390a150565b6108bb610b07565b600081116109005760405162461bcd60e51b81526020600482015260126024820152710416d6f756e74206d757374206265203e20360741b6044820152606401610389565b6000620f4240600454836109149190610f99565b61091e9190610fbe565b9050600081116109705760405162461bcd60e51b815260206004820152601a60248201527f496e73756666696369656e742065786368616e676520726174650000000000006044820152606401610389565b6002546040516370a0823160e01b815230600482015282916001600160a01b0316906370a0823190602401602060405180830381865afa1580156109b8573d6000803e3d6000fd5b505050506040513d601f19601f820116820180604052508101906109dc9190610f80565b1015610a2a5760405162461bcd60e51b815260206004820152601b60248201527f496e73756666696369656e742055534443206c697175696469747900000000006044820152606401610389565b600354610a42906001600160a01b0316333085610b60565b600254610a59906001600160a01b03163383610bd1565b604080518381526020810183905233917f6edcb80d9125f9a7aae8e35a0cfa37d6c63225d964733bfed1b01df19cbb58c5910161051e565b610a99610c06565b6001600160a01b038116610afe5760405162461bcd60e51b815260206004820152602660248201527f4f776e61626c653a206e6577206f776e657220697320746865207a65726f206160448201526564647265737360d01b6064820152608401610389565b61053081610c60565b600260015403610b595760405162461bcd60e51b815260206004820152601f60248201527f5265656e7472616e637947756172643a207265656e7472616e742063616c6c006044820152606401610389565b6002600155565b6040516001600160a01b0380851660248301528316604482015260648101829052610bcb9085906323b872dd60e01b906084015b60408051601f198184030181529190526020810180516001600160e01b03166001600160e01b031990931692909217909152610cb0565b50505050565b6040516001600160a01b038316602482015260448101829052610c0190849063a9059cbb60e01b90606401610b94565b505050565b6000546001600160a01b031633146105455760405162461bcd60e51b815260206004820181905260248201527f4f776e61626c653a2063616c6c6572206973206e6f7420746865206f776e65726044820152606401610389565b600080546001600160a01b038381166001600160a01b0319831681178455604051919092169283917f8be0079c531659141344cd1fd0a4f28419497f9722a3daafe3b4186f6b6457e09190a35050565b6000610d05826040518060400160405280602081526020017f5361666545524332303a206c6f772d6c6576656c2063616c6c206661696c6564815250856001600160a01b0316610d859092919063ffffffff16565b9050805160001480610d26575080806020019051810190610d269190610fe0565b610c015760405162461bcd60e51b815260206004820152602a60248201527f5361666545524332303a204552433230206f7065726174696f6e20646964206e6044820152691bdd081cdd58d8d9595960b21b6064820152608401610389565b6060610d948484600085610d9c565b949350505050565b606082471015610dfd5760405162461bcd60e51b815260206004820152602660248201527f416464726573733a20696e73756666696369656e742062616c616e636520666f6044820152651c8818d85b1b60d21b6064820152608401610389565b600080866001600160a01b03168587604051610e199190611026565b60006040518083038185875af1925050503d8060008114610e56576040519150601f19603f3d011682016040523d82523d6000602084013e610e5b565b606091505b5091509150610e6c87838387610e77565b979650505050505050565b60608315610ee6578251600003610edf576001600160a01b0385163b610edf5760405162461bcd60e51b815260206004820152601d60248201527f416464726573733a2063616c6c20746f206e6f6e2d636f6e74726163740000006044820152606401610389565b5081610d94565b610d948383815115610efb5781518083602001fd5b8060405162461bcd60e51b81526004016103899190611042565b600060208284031215610f2757600080fd5b5035919050565b60008060408385031215610f4157600080fd5b50508035926020909101359150565b600060208284031215610f6257600080fd5b81356001600160a01b0381168114610f7957600080fd5b9392505050565b600060208284031215610f9257600080fd5b5051919050565b808202811582820484141761032657634e487b7160e01b600052601160045260246000fd5b600082610fdb57634e487b7160e01b600052601260045260246000fd5b500490565b600060208284031215610ff257600080fd5b81518015158114610f7957600080fd5b60005b8381101561101d578181015183820152602001611005565b50506000910152565b60008251611038818460208701611002565b9190910192915050565b6020815260008251806020840152611061816040850160208701611002565b601f01601f1916919091016040019291505056fea2646970667358221220fad910e49383628030cf4bceb41c109b55eed039b6dace45533383ffde9661c064736f6c63430008140033",
  "linkReferences": {},
  "deployedLinkReferences": {}
}